:100AC600456E7465722074686520636861720049BA
:100AD6006E70757420506C6561736500496E766141
:0A0AE6006C696420496E707574009D
:040BE500C101C10089
:100A4100E4F5A0C282C280C2817F38FE120B657FAD
:100A5100047E00120AF77F067E00120B657F047E7A
:100A610000120AF77F0C7E00120B657F047E0012D4
:100A71000AF7120B617F047E00120AF77F807E0065
:030A8100020B6500
:070AF000120B9B7FE87E035F
:100AF700E4FDFCC3ED9FEC9E5015E4FBFA0BBB0035
:0F0B0700010ABA01F8BB7EF50DBD00010C80E4B8
:010B160022BC
:040B61007F017E0092
:100B6500C280C281D2828FA07F0A7E00120AF7C29C
:020B75008222DA
:100B7700D280C281D2828FA07F0A7E00120AF7C27A
:020B87008222C8
:100B17008B098A0A890BAB09AA0AA90B120800607C
:100B270013050BE50B7002050A14F9120800FF12F2
:050B37000B7780E222B3
:100B8900438920758DF3759840D28ED2ACD2AFD2FD
:020B99009C229C
:080BDD008F993001FDC20122D5
:100B3C008B098A0A890BAB09AA0AA90B1208006057
:100B4C0013050BE50B7002050A14F9120800FF12CD
:050B5C000BDD80E22228
:090BCA00E4FF3000FDC200AF9908
:010BD30022FF
:03002300020BAD20
:100BAD00309905C299D20132309804C298D20032E0
:0D0BBD00438901758A8F758CF143A882224F
:03000B00020BD411
:090BD400B283758A8F758CF13231
:100B9B00758A8F758CF1D283D28C120AF3C28CC2F8
:020BAB008322A3
:080A84008E0B8F0C8C0D8D0E02
:100A8C00900000C3E582950EE50D6480F8E5836463
:100A9C0080985006120AF0A380E9120AF3E4F58359
:100AAC00F582C3E582950CE50B6480F8E5836480E0
:090ABC00985006120AF0A380E92B
:010AC500220E
:1008A400EF24BFFFE434FFAB07FAE4F509F50AF5DA
:1008B40082F583EB640A4A7009F509750A03058217
:1008C4008070C3EB940AEA64809480501E7C007D9F
:1008D40005AF03AE02120819ED2401F50AE43CF554
:1008E400097C007D05AF03AE02803B7C007D05AF33
:1008F40003AE02120819ED4C7015F509750A05FCD2
:100904007D05AF03AE021208198E838F8280237C8B
:10091400007D05AF03AE021208198C098D0AAE02E0
:10092400AF037C007D05120819EF2401F582E43E33
:0D093400F583AD82AC83AF0AAE09020A84E0
:1009CD00E4F508120A41120B89120BBD7BFF7A0A5E
:1009DD0079C6120B3C120B617F807E00120B657B7A
:1009ED00FF7A0A79D5120B17120BCA8F08E5082466
:1009FD00BF24E6500824FA24E650098014120B6136
:100A0D00AF088008120B61E50824E0FF1208A480EE
:100A1D001A120B617F807E00120B657BFF7A0A79BB
:100A2D00E2120B177FD07E07120AF77F647E001249
:040A3D000AF780A193
:03000000020941B1
:0C094100787FE4F6D8FD7581200209885B
:10080000BB010689828A83E0225002E722BBFE02F6
:09081000E32289828A83E4932229
:10081900C2D5EC30E709B2D5E4C39DFDE49CFCEEFA
:1008290030E715B2D5E4C39FFFE49EFE12084FC31B
:10083900E49DFDE49CFC800312084F30D507C3E416
:060849009FFFE49EFE2269
:10094D000209CDE493A3F8E493A34003F68001F2EA
:10095D0008DFF48029E493A3F85407240CC8C333AB
:10096D00C4540F4420C8834004F456800146F6DF7A
:10097D00E4800B0102040810204080900BE5E47E1A
:10098D00019360BCA3FF543F30E509541FFEE4936F
:10099D00A360010ECF54C025E060A840B8E493A336
:1009AD00FAE493A3F8E493A3C8C582C8CAC583CA61
:1009BD00F0A3C8C582C8CAC583CADFE9DEE780BE19
:010BE900000B
:10084F00BC000BBE0029EF8DF084FFADF022E4CC8D
:10085F00F875F008EF2FFFEE33FEEC33FCEE9DEC56
:10086F00984005FCEE9DFE0FD5F0E9E4CEFD22ED9C
:10087F00F8F5F0EE8420D21CFEADF075F008EF2FE6
:10088F00FFED33FD4007985006D5F0F222C398FDD7
:05089F000FD5F0EA2274
:00000001FF
